{
  "address": "0x7E0E4Af986b7776Bb2396034f0d85fd0cE013D8D",
  "abi": [
    {
      "inputs": [
        {
          "internalType": "address",
          "name": "initialOwner",
          "type": "address"
        }
      ],
      "stateMutability": "nonpayable",
      "type": "constructor"
    },
    {
      "inputs": [
        {
          "internalType": "address",
          "name": "sender",
          "type": "address"
        },
        {
          "internalType": "uint256",
          "name": "tokenId",
          "type": "uint256"
        },
        {
          "internalType": "address",
          "name": "owner",
          "type": "address"
        }
      ],
      "name": "ERC721IncorrectOwner",
      "type": "error"
    },
    {
      "inputs": [
        {
          "internalType": "address",
          "name": "operator",
          "type": "address"
        },
        {
          "internalType": "uint256",
          "name": "tokenId",
          "type": "uint256"
        }
      ],
      "name": "ERC721InsufficientApproval",
      "type": "error"
    },
    {
      "inputs": [
        {
          "internalType": "address",
          "name": "approver",
          "type": "address"
        }
      ],
      "name": "ERC721InvalidApprover",
      "type": "error"
    },
    {
      "inputs": [
        {
          "internalType": "address",
          "name": "operator",
          "type": "address"
        }
      ],
      "name": "ERC721InvalidOperator",
      "type": "error"
    },
    {
      "inputs": [
        {
          "internalType": "address",
          "name": "owner",
          "type": "address"
        }
      ],
      "name": "ERC721InvalidOwner",
      "type": "error"
    },
    {
      "inputs": [
        {
          "internalType": "address",
          "name": "receiver",
          "type": "address"
        }
      ],
      "name": "ERC721InvalidReceiver",
      "type": "error"
    },
    {
      "inputs": [
        {
          "internalType": "address",
          "name": "sender",
          "type": "address"
        }
      ],
      "name": "ERC721InvalidSender",
      "type": "error"
    },
    {
      "inputs": [
        {
          "internalType": "uint256",
          "name": "tokenId",
          "type": "uint256"
        }
      ],
      "name": "ERC721NonexistentToken",
      "type": "error"
    },
    {
      "inputs": [
        {
          "internalType": "address",
          "name": "owner",
          "type": "address"
        }
      ],
      "name": "OwnableInvalidOwner",
      "type": "error"
    },
    {
      "inputs": [
        {
          "internalType": "address",
          "name": "account",
          "type": "address"
        }
      ],
      "name": "OwnableUnauthorizedAccount",
      "type": "error"
    },
    {
      "anonymous": false,
      "inputs": [
        {
          "indexed": true,
          "internalType": "address",
          "name": "owner",
          "type": "address"
        },
        {
          "indexed": true,
          "internalType": "address",
          "name": "approved",
          "type": "address"
        },
        {
          "indexed": true,
          "internalType": "uint256",
          "name": "tokenId",
          "type": "uint256"
        }
      ],
      "name": "Approval",
      "type": "event"
    },
    {
      "anonymous": false,
      "inputs": [
        {
          "indexed": true,
          "internalType": "address",
          "name": "owner",
          "type": "address"
        },
        {
          "indexed": true,
          "internalType": "address",
          "name": "operator",
          "type": "address"
        },
        {
          "indexed": false,
          "internalType": "bool",
          "name": "approved",
          "type": "bool"
        }
      ],
      "name": "ApprovalForAll",
      "type": "event"
    },
    {
      "anonymous": false,
      "inputs": [
        {
          "indexed": false,
          "internalType": "uint256",
          "name": "_fromTokenId",
          "type": "uint256"
        },
        {
          "indexed": false,
          "internalType": "uint256",
          "name": "_toTokenId",
          "type": "uint256"
        }
      ],
      "name": "BatchMetadataUpdate",
      "type": "event"
    },
    {
      "anonymous": false,
      "inputs": [
        {
          "indexed": true,
          "internalType": "address",
          "name": "estudiante",
          "type": "address"
        },
        {
          "indexed": true,
          "internalType": "uint256",
          "name": "certificadoID",
          "type": "uint256"
        },
        {
          "indexed": false,
          "internalType": "uint256",
          "name": "tipoID",
          "type": "uint256"
        },
        {
          "indexed": false,
          "internalType": "string",
          "name": "nombreCertificado",
          "type": "string"
        },
        {
          "indexed": false,
          "internalType": "uint256",
          "name": "fecha",
          "type": "uint256"
        }
      ],
      "name": "CertificadoAsignado",
      "type": "event"
    },
    {
      "anonymous": false,
      "inputs": [
        {
          "indexed": true,
          "internalType": "address",
          "name": "estudiante",
          "type": "address"
        },
        {
          "indexed": true,
          "internalType": "uint256",
          "name": "idPersona",
          "type": "uint256"
        },
        {
          "indexed": false,
          "internalType": "string",
          "name": "nombres",
          "type": "string"
        },
        {
          "indexed": false,
          "internalType": "string",
          "name": "apellidos",
          "type": "string"
        }
      ],
      "name": "EstudianteRegistrado",
      "type": "event"
    },
    {
      "anonymous": false,
      "inputs": [
        {
          "indexed": false,
          "internalType": "uint256",
          "name": "_tokenId",
          "type": "uint256"
        }
      ],
      "name": "MetadataUpdate",
      "type": "event"
    },
    {
      "anonymous": false,
      "inputs": [
        {
          "indexed": true,
          "internalType": "uint256",
          "name": "tipoID",
          "type": "uint256"
        },
        {
          "indexed": false,
          "internalType": "string",
          "name": "nombre",
          "type": "string"
        }
      ],
      "name": "NuevoTipoCertificado",
      "type": "event"
    },
    {
      "anonymous": false,
      "inputs": [
        {
          "indexed": true,
          "internalType": "address",
          "name": "previousOwner",
          "type": "address"
        },
        {
          "indexed": true,
          "internalType": "address",
          "name": "newOwner",
          "type": "address"
        }
      ],
      "name": "OwnershipTransferred",
      "type": "event"
    },
    {
      "anonymous": false,
      "inputs": [
        {
          "indexed": true,
          "internalType": "address",
          "name": "from",
          "type": "address"
        },
        {
          "indexed": true,
          "internalType": "address",
          "name": "to",
          "type": "address"
        },
        {
          "indexed": true,
          "internalType": "uint256",
          "name": "tokenId",
          "type": "uint256"
        }
      ],
      "name": "Transfer",
      "type": "event"
    },
    {
      "inputs": [
        {
          "internalType": "string",
          "name": "_nombre",
          "type": "string"
        },
        {
          "internalType": "string",
          "name": "_uri",
          "type": "string"
        },
        {
          "internalType": "uint256",
          "name": "_precio",
          "type": "uint256"
        }
      ],
      "name": "agregarTipoCertificado",
      "outputs": [],
      "stateMutability": "nonpayable",
      "type": "function"
    },
    {
      "inputs": [
        {
          "internalType": "address",
          "name": "to",
          "type": "address"
        },
        {
          "internalType": "uint256",
          "name": "tokenId",
          "type": "uint256"
        }
      ],
      "name": "approve",
      "outputs": [],
      "stateMutability": "nonpayable",
      "type": "function"
    },
    {
      "inputs": [
        {
          "internalType": "address",
          "name": "_estudiante",
          "type": "address"
        },
        {
          "internalType": "uint256",
          "name": "_tipoID",
          "type": "uint256"
        }
      ],
      "name": "asignarCertificado",
      "outputs": [],
      "stateMutability": "nonpayable",
      "type": "function"
    },
    {
      "inputs": [
        {
          "internalType": "address",
          "name": "owner",
          "type": "address"
        }
      ],
      "name": "balanceOf",
      "outputs": [
        {
          "internalType": "uint256",
          "name": "",
          "type": "uint256"
        }
      ],
      "stateMutability": "view",
      "type": "function"
    },
    {
      "inputs": [
        {
          "internalType": "address",
          "name": "",
          "type": "address"
        }
      ],
      "name": "esEstudianteRegistrado",
      "outputs": [
        {
          "internalType": "bool",
          "name": "",
          "type": "bool"
        }
      ],
      "stateMutability": "view",
      "type": "function"
    },
    {
      "inputs": [
        {
          "internalType": "uint256",
          "name": "",
          "type": "uint256"
        }
      ],
      "name": "galeriaCertificados",
      "outputs": [
        {
          "internalType": "string",
          "name": "nombre",
          "type": "string"
        },
        {
          "internalType": "string",
          "name": "uri",
          "type": "string"
        },
        {
          "internalType": "uint256",
          "name": "precio",
          "type": "uint256"
        }
      ],
      "stateMutability": "view",
      "type": "function"
    },
    {
      "inputs": [
        {
          "internalType": "uint256",
          "name": "tokenId",
          "type": "uint256"
        }
      ],
      "name": "getApproved",
      "outputs": [
        {
          "internalType": "address",
          "name": "",
          "type": "address"
        }
      ],
      "stateMutability": "view",
      "type": "function"
    },
    {
      "inputs": [
        {
          "internalType": "address",
          "name": "owner",
          "type": "address"
        },
        {
          "internalType": "address",
          "name": "operator",
          "type": "address"
        }
      ],
      "name": "isApprovedForAll",
      "outputs": [
        {
          "internalType": "bool",
          "name": "",
          "type": "bool"
        }
      ],
      "stateMutability": "view",
      "type": "function"
    },
    {
      "inputs": [],
      "name": "name",
      "outputs": [
        {
          "internalType": "string",
          "name": "",
          "type": "string"
        }
      ],
      "stateMutability": "view",
      "type": "function"
    },
    {
      "inputs": [],
      "name": "owner",
      "outputs": [
        {
          "internalType": "address",
          "name": "",
          "type": "address"
        }
      ],
      "stateMutability": "view",
      "type": "function"
    },
    {
      "inputs": [
        {
          "internalType": "uint256",
          "name": "tokenId",
          "type": "uint256"
        }
      ],
      "name": "ownerOf",
      "outputs": [
        {
          "internalType": "address",
          "name": "",
          "type": "address"
        }
      ],
      "stateMutability": "view",
      "type": "function"
    },
    {
      "inputs": [
        {
          "internalType": "uint256",
          "name": "_id",
          "type": "uint256"
        },
        {
          "internalType": "string",
          "name": "_nombres",
          "type": "string"
        },
        {
          "internalType": "string",
          "name": "_apellidos",
          "type": "string"
        }
      ],
      "name": "registrarEstudiante",
      "outputs": [],
      "stateMutability": "nonpayable",
      "type": "function"
    },
    {
      "inputs": [],
      "name": "renounceOwnership",
      "outputs": [],
      "stateMutability": "nonpayable",
      "type": "function"
    },
    {
      "inputs": [
        {
          "internalType": "address",
          "name": "from",
          "type": "address"
        },
        {
          "internalType": "address",
          "name": "to",
          "type": "address"
        },
        {
          "internalType": "uint256",
          "name": "tokenId",
          "type": "uint256"
        }
      ],
      "name": "safeTransferFrom",
      "outputs": [],
      "stateMutability": "nonpayable",
      "type": "function"
    },
    {
      "inputs": [
        {
          "internalType": "address",
          "name": "from",
          "type": "address"
        },
        {
          "internalType": "address",
          "name": "to",
          "type": "address"
        },
        {
          "internalType": "uint256",
          "name": "tokenId",
          "type": "uint256"
        },
        {
          "internalType": "bytes",
          "name": "data",
          "type": "bytes"
        }
      ],
      "name": "safeTransferFrom",
      "outputs": [],
      "stateMutability": "nonpayable",
      "type": "function"
    },
    {
      "inputs": [
        {
          "internalType": "address",
          "name": "operator",
          "type": "address"
        },
        {
          "internalType": "bool",
          "name": "approved",
          "type": "bool"
        }
      ],
      "name": "setApprovalForAll",
      "outputs": [],
      "stateMutability": "nonpayable",
      "type": "function"
    },
    {
      "inputs": [
        {
          "internalType": "bytes4",
          "name": "interfaceId",
          "type": "bytes4"
        }
      ],
      "name": "supportsInterface",
      "outputs": [
        {
          "internalType": "bool",
          "name": "",
          "type": "bool"
        }
      ],
      "stateMutability": "view",
      "type": "function"
    },
    {
      "inputs": [],
      "name": "symbol",
      "outputs": [
        {
          "internalType": "string",
          "name": "",
          "type": "string"
        }
      ],
      "stateMutability": "view",
      "type": "function"
    },
    {
      "inputs": [
        {
          "internalType": "uint256",
          "name": "tokenId",
          "type": "uint256"
        }
      ],
      "name": "tokenURI",
      "outputs": [
        {
          "internalType": "string",
          "name": "",
          "type": "string"
        }
      ],
      "stateMutability": "view",
      "type": "function"
    },
    {
      "inputs": [
        {
          "internalType": "address",
          "name": "from",
          "type": "address"
        },
        {
          "internalType": "address",
          "name": "to",
          "type": "address"
        },
        {
          "internalType": "uint256",
          "name": "tokenId",
          "type": "uint256"
        }
      ],
      "name": "transferFrom",
      "outputs": [],
      "stateMutability": "nonpayable",
      "type": "function"
    },
    {
      "inputs": [
        {
          "internalType": "address",
          "name": "newOwner",
          "type": "address"
        }
      ],
      "name": "transferOwnership",
      "outputs": [],
      "stateMutability": "nonpayable",
      "type": "function"
    }
  ],
  "transactionHash": "0x8d898a39899e516595eb3fcd8afa797356309f7f49c94d4b4094fee89efa8165",
  "args": [
    "0xd8B6DF1E8243e9107432A034Bc2eEfd21821a6eA"
  ],
  "numDeployments": 1,
  "solcInputHash": "5a85a0f2688217df10e01c1c14090689",
  "bytecode": "0x60806040523480156200001157600080fd5b5060405162001e9138038062001e91833981016040819052620000349162000140565b806040518060400160405280601481526020017f436572746966696361646f496e7374697475746f000000000000000000000000815250604051806040016040528060058152602001641250d1549560da1b81525081600090816200009a919062000217565b506001620000a9828262000217565b5050506001600160a01b038116620000db57604051631e4fbdf760e01b81526000600482015260240160405180910390fd5b620000e681620000ee565b5050620002e3565b600780546001600160a01b038381166001600160a01b0319831681179093556040519116919082907f8be0079c531659141344cd1fd0a4f28419497f9722a3daafe3b4186f6b6457e090600090a35050565b6000602082840312156200015357600080fd5b81516001600160a01b03811681146200016b57600080fd5b9392505050565b634e487b7160e01b600052604160045260246000fd5b600181811c908216806200019d57607f821691505b602082108103620001be57634e487b7160e01b600052602260045260246000fd5b50919050565b601f8211156200021257600081815260208120601f850160051c81016020861015620001ed5750805b601f850160051c820191505b818110156200020e57828155600101620001f9565b5050505b505050565b81516001600160401b0381111562000233576200023362000172565b6200024b8162000244845462000188565b84620001c4565b602080601f8311600181146200028357600084156200026a5750858301515b600019600386901b1c1916600185901b1785556200020e565b600085815260208120601f198616915b82811015620002b45788860151825594840194600190910190840162000293565b5085821015620002d35787850151600019600388901b60f8161c191681555b5050505050600190811b01905550565b611b9e80620002f36000396000f3fe608060405234801561001057600080fd5b50600436106101375760003560e01c80638868f388116100b8578063a22cb4651161007c578063a22cb4651461029f578063b88d4fde146102b2578063c87b56dd146102c5578063d61e0ffa146102d8578063e985e9c5146102eb578063f2fde38b146102fe57600080fd5b80638868f3881461022e5780638bf5c36e146102515780638da5cb5b1461027357806395d89b4114610284578063963445fa1461028c57600080fd5b806339ada18f116100ff57806339ada18f146101cc57806342842e0e146101df5780636352211e146101f257806370a0823114610205578063715018a61461022657600080fd5b806301ffc9a71461013c57806306fdde0314610164578063081812fc14610179578063095ea7b3146101a457806323b872dd146101b9575b600080fd5b61014f61014a3660046114a2565b610311565b60405190151581526020015b60405180910390f35b61016c610322565b60405161015b919061150f565b61018c610187366004611522565b6103b4565b6040516001600160a01b03909116815260200161015b565b6101b76101b2366004611557565b6103dd565b005b6101b76101c7366004611581565b6103ec565b6101b76101da366004611669565b61047c565b6101b76101ed366004611581565b610552565b61018c610200366004611522565b610572565b6102186102133660046116d6565b61057d565b60405190815260200161015b565b6101b76105c5565b61014f61023c3660046116d6565b600a6020526000908152604090205460ff1681565b61026461025f366004611522565b6105d9565b60405161015b939291906116f1565b6007546001600160a01b031661018c565b61016c610723565b6101b761029a366004611557565b610732565b6101b76102ad366004611727565b61093c565b6101b76102c0366004611763565b610947565b61016c6102d3366004611522565b61095e565b6101b76102e63660046117df565b610969565b61014f6102f936600461184c565b610a1b565b6101b761030c3660046116d6565b610a49565b600061031c82610a87565b92915050565b6060600080546103319061187f565b80601f016020809104026020016040519081016040528092919081815260200182805461035d9061187f565b80156103aa5780601f1061037f576101008083540402835291602001916103aa565b820191906000526020600020905b81548152906001019060200180831161038d57829003601f168201915b5050505050905090565b60006103bf82610aac565b506000828152600460205260409020546001600160a01b031661031c565b6103e8828233610ae5565b5050565b6001600160a01b03821661041b57604051633250574960e11b8152600060048201526024015b60405180910390fd5b6000610428838333610af2565b9050836001600160a01b0316816001600160a01b031614610476576040516364283d7b60e01b81526001600160a01b0380861660048301526024820184905282166044820152606401610412565b50505050565b610484610b91565b604080516060810182528481526020810184905290810182905260098054600181018255600091909152815160039091027f6e1540171b6c0c960b71a7020d9f60077f6af931a8bbf590da0223dacf75c7af019081906104e49082611907565b50602082015160018201906104f99082611907565b5060409190910151600290910155600954610516906001906119dd565b7f6be9bb67002b822bbbb62724eee0a8cb858593b65f5c4bfd673c6fd56b14302f84604051610545919061150f565b60405180910390a2505050565b61056d83838360405180602001604052806000815250610947565b505050565b600061031c82610aac565b60006001600160a01b0382166105a9576040516322718ad960e21b815260006004820152602401610412565b506001600160a01b031660009081526003602052604090205490565b6105cd610b91565b6105d76000610bbe565b565b600981815481106105e957600080fd5b906000526020600020906003020160009150905080600001805461060c9061187f565b80601f01602080910402602001604051908101604052809291908181526020018280546106389061187f565b80156106855780601f1061065a57610100808354040283529160200191610685565b820191906000526020600020905b81548152906001019060200180831161066857829003601f168201915b50505050509080600101805461069a9061187f565b80601f01602080910402602001604051908101604052809291908181526020018280546106c69061187f565b80156107135780601f106106e857610100808354040283529160200191610713565b820191906000526020600020905b8154815290600101906020018083116106f657829003601f168201915b5050505050908060020154905083565b6060600180546103319061187f565b61073a610b91565b6001600160a01b0382166000908152600a602052604090205460ff166107c05760405162461bcd60e51b815260206004820152603560248201527f456c20657374756469616e74652064656265207265676973747261727365207060448201527472696d65726f20656e20656c20636f6e747261746f60581b6064820152608401610412565b60095481106108115760405162461bcd60e51b815260206004820181905260248201527f456c207469706f20646520636572746966696361646f206e6f206578697374656044820152606401610412565b6008805460009182610822836119f0565b9190505590506108328382610c10565b60006009838154811061084757610847611a09565b906000526020600020906003020190506108ed8282600101805461086a9061187f565b80601f01602080910402602001604051908101604052809291908181526020018280546108969061187f565b80156108e35780601f106108b8576101008083540402835291602001916108e3565b820191906000526020600020905b8154815290600101906020018083116108c657829003601f168201915b5050505050610c75565b81846001600160a01b03167fae150b8a43853758c67a48e643cb2e5e73fcf2820ad74c9fe1fffac23f8e880e85846000014260405161092e93929190611a1f565b60405180910390a350505050565b6103e8338383610cc5565b6109528484846103ec565b61047684848484610d5c565b606061031c82610e85565b336000908152600a602052604090205460ff16156109bf5760405162461bcd60e51b81526020600482015260136024820152725961206573746173207265676973747261646f60681b6044820152606401610412565b336000818152600a602052604090819020805460ff19166001179055518491907f621b738d26251d88bf1fe93001208ef348f984d33c43debaf3e35d1067da811890610a0e9086908690611aba565b60405180910390a3505050565b6001600160a01b03918216600090815260056020908152604080832093909416825291909152205460ff1690565b610a51610b91565b6001600160a01b038116610a7b57604051631e4fbdf760e01b815260006004820152602401610412565b610a8481610bbe565b50565b60006001600160e01b03198216632483248360e11b148061031c575061031c82610f96565b6000818152600260205260408120546001600160a01b03168061031c57604051637e27328960e01b815260048101849052602401610412565b61056d8383836001610fe6565b6000828152600260205260408120546001600160a01b03168015801590610b2157506001600160a01b03851615155b15610b7d5760405162461bcd60e51b815260206004820152602660248201527f4572723a20546f6b656e20536f756c626f756e642e204e6f207472616e7366656044820152653934b136329760d11b6064820152608401610412565b610b888585856110ec565b95945050505050565b6007546001600160a01b031633146105d75760405163118cdaa760e01b8152336004820152602401610412565b600780546001600160a01b038381166001600160a01b0319831681179093556040519116919082907f8be0079c531659141344cd1fd0a4f28419497f9722a3daafe3b4186f6b6457e090600090a35050565b6001600160a01b038216610c3a57604051633250574960e11b815260006004820152602401610412565b6000610c4883836000610af2565b90506001600160a01b0381161561056d576040516339e3563760e11b815260006004820152602401610412565b6000828152600660205260409020610c8d8282611907565b506040518281527ff8e1a15aba9398e019f0b49df1a4fde98ee17ae345cb5f6b5e2c27f5033e8ce79060200160405180910390a15050565b6001600160a01b038216610cf757604051630b61174360e31b81526001600160a01b0383166004820152602401610412565b6001600160a01b03838116600081815260056020908152604080832094871680845294825291829020805460ff191686151590811790915591519182527f17307eab39ab6107e8899845ad3d59bd9653f200f220920489ca2b5937696c319101610a0e565b6001600160a01b0383163b1561047657604051630a85bd0160e11b81526001600160a01b0384169063150b7a0290610d9e903390889087908790600401611adf565b6020604051808303816000875af1925050508015610dd9575060408051601f3d908101601f19168201909252610dd691810190611b1c565b60015b610e42573d808015610e07576040519150601f19603f3d011682016040523d82523d6000602084013e610e0c565b606091505b508051600003610e3a57604051633250574960e11b81526001600160a01b0385166004820152602401610412565b805181602001fd5b6001600160e01b03198116630a85bd0160e11b14610e7e57604051633250574960e11b81526001600160a01b0385166004820152602401610412565b5050505050565b6060610e9082610aac565b5060008281526006602052604081208054610eaa9061187f565b80601f0160208091040260200160405190810160405280929190818152602001828054610ed69061187f565b8015610f235780601f10610ef857610100808354040283529160200191610f23565b820191906000526020600020905b815481529060010190602001808311610f0657829003601f168201915b505050505090506000610f4160408051602081019091526000815290565b90508051600003610f53575092915050565b815115610f85578082604051602001610f6d929190611b39565b60405160208183030381529060405292505050919050565b610f8e846111e5565b949350505050565b60006001600160e01b031982166380ac58cd60e01b1480610fc757506001600160e01b03198216635b5e139f60e01b145b8061031c57506301ffc9a760e01b6001600160e01b031983161461031c565b8080610ffa57506001600160a01b03821615155b156110bc57600061100a84610aac565b90506001600160a01b038316158015906110365750826001600160a01b0316816001600160a01b031614155b801561104957506110478184610a1b565b155b156110725760405163a9fbf51f60e01b81526001600160a01b0384166004820152602401610412565b81156110ba5783856001600160a01b0316826001600160a01b03167f8c5be1e5ebec7d5bd14f71427d1e84f3dd0314c0f7b2291e5b200ac8c7c3b92560405160405180910390a45b505b5050600090815260046020526040902080546001600160a01b0319166001600160a01b0392909216919091179055565b6000828152600260205260408120546001600160a01b03908116908316156111195761111981848661125a565b6001600160a01b0381161561115757611136600085600080610fe6565b6001600160a01b038116600090815260036020526040902080546000190190555b6001600160a01b03851615611186576001600160a01b0385166000908152600360205260409020805460010190555b60008481526002602052604080822080546001600160a01b0319166001600160a01b0389811691821790925591518793918516917fddf252ad1be2c89b69c2b068fc378daa952ba7f163c4a11628f55a4df523b3ef91a4949350505050565b60606111f082610aac565b50600061120860408051602081019091526000815290565b905060008151116112285760405180602001604052806000815250611253565b80611232846112be565b604051602001611243929190611b39565b6040516020818303038152906040525b9392505050565b611265838383611351565b61056d576001600160a01b03831661129357604051637e27328960e01b815260048101829052602401610412565b60405163177e802f60e01b81526001600160a01b038316600482015260248101829052604401610412565b606060006112cb836113b4565b600101905060008167ffffffffffffffff8111156112eb576112eb6115bd565b6040519080825280601f01601f191660200182016040528015611315576020820181803683370190505b5090508181016020015b600019016f181899199a1a9b1b9c1cb0b131b232b360811b600a86061a8153600a850494508461131f57509392505050565b60006001600160a01b03831615801590610f8e5750826001600160a01b0316846001600160a01b0316148061138b575061138b8484610a1b565b80610f8e5750506000908152600460205260409020546001600160a01b03908116911614919050565b60008072184f03e93ff9f4daa797ed6e38ed64bf6a1f0160401b83106113f35772184f03e93ff9f4daa797ed6e38ed64bf6a1f0160401b830492506040015b6d04ee2d6d415b85acef8100000000831061141f576d04ee2d6d415b85acef8100000000830492506020015b662386f26fc10000831061143d57662386f26fc10000830492506010015b6305f5e1008310611455576305f5e100830492506008015b612710831061146957612710830492506004015b6064831061147b576064830492506002015b600a831061031c5760010192915050565b6001600160e01b031981168114610a8457600080fd5b6000602082840312156114b457600080fd5b81356112538161148c565b60005b838110156114da5781810151838201526020016114c2565b50506000910152565b600081518084526114fb8160208601602086016114bf565b601f01601f19169290920160200192915050565b60208152600061125360208301846114e3565b60006020828403121561153457600080fd5b5035919050565b80356001600160a01b038116811461155257600080fd5b919050565b6000806040838503121561156a57600080fd5b6115738361153b565b946020939093013593505050565b60008060006060848603121561159657600080fd5b61159f8461153b565b92506115ad6020850161153b565b9150604084013590509250925092565b634e487b7160e01b600052604160045260246000fd5b600067ffffffffffffffff808411156115ee576115ee6115bd565b604051601f8501601f19908116603f01168101908282118183101715611616576116166115bd565b8160405280935085815286868601111561162f57600080fd5b858560208301376000602087830101525050509392505050565b600082601f83011261165a57600080fd5b611253838335602085016115d3565b60008060006060848603121561167e57600080fd5b833567ffffffffffffffff8082111561169657600080fd5b6116a287838801611649565b945060208601359150808211156116b857600080fd5b506116c586828701611649565b925050604084013590509250925092565b6000602082840312156116e857600080fd5b6112538261153b565b60608152600061170460608301866114e3565b828103602084015261171681866114e3565b915050826040830152949350505050565b6000806040838503121561173a57600080fd5b6117438361153b565b91506020830135801515811461175857600080fd5b809150509250929050565b6000806000806080858703121561177957600080fd5b6117828561153b565b93506117906020860161153b565b925060408501359150606085013567ffffffffffffffff8111156117b357600080fd5b8501601f810187136117c457600080fd5b6117d3878235602084016115d3565b91505092959194509250565b6000806000606084860312156117f457600080fd5b83359250602084013567ffffffffffffffff8082111561181357600080fd5b61181f87838801611649565b9350604086013591508082111561183557600080fd5b5061184286828701611649565b9150509250925092565b6000806040838503121561185f57600080fd5b6118688361153b565b91506118766020840161153b565b90509250929050565b600181811c9082168061189357607f821691505b6020821081036118b357634e487b7160e01b600052602260045260246000fd5b50919050565b601f82111561056d57600081815260208120601f850160051c810160208610156118e05750805b601f850160051c820191505b818110156118ff578281556001016118ec565b505050505050565b815167ffffffffffffffff811115611921576119216115bd565b6119358161192f845461187f565b846118b9565b602080601f83116001811461196a57600084156119525750858301515b600019600386901b1c1916600185901b1785556118ff565b600085815260208120601f198616915b828110156119995788860151825594840194600190910190840161197a565b50858210156119b75787850151600019600388901b60f8161c191681555b5050505050600190811b01905550565b634e487b7160e01b600052601160045260246000fd5b8181038181111561031c5761031c6119c7565b600060018201611a0257611a026119c7565b5060010190565b634e487b7160e01b600052603260045260246000fd5b8381526000602060608184015260008554611a398161187f565b8060608701526080600180841660008114611a5b5760018114611a7557611aa3565b60ff1985168984015283151560051b890183019550611aa3565b8a6000528660002060005b85811015611a9b5781548b8201860152908301908801611a80565b8a0184019650505b505050505060409390930193909352509392505050565b604081526000611acd60408301856114e3565b8281036020840152610b8881856114e3565b6001600160a01b0385811682528416602082015260408101839052608060608201819052600090611b12908301846114e3565b9695505050505050565b600060208284031215611b2e57600080fd5b81516112538161148c565b60008351611b4b8184602088016114bf565b835190830190611b5f8183602088016114bf565b0194935050505056fea2646970667358221220c4267acebf94b92b21a441c3625baa459a787179edcbf3fae7bbcadf2805ca2164736f6c63430008140033",
  "devdoc": {
    "errors": {
      "ERC721IncorrectOwner(address,uint256,address)": [
        {
          "details": "Indicates an error related to the ownership over a particular token. Used in transfers.",
          "params": {
            "owner": "Address of the current owner of a token.",
            "sender": "Address whose tokens are being transferred.",
            "tokenId": "Identifier number of a token."
          }
        }
      ],
      "ERC721InsufficientApproval(address,uint256)": [
        {
          "details": "Indicates a failure with the `operator`s approval. Used in transfers.",
          "params": {
            "operator": "Address that may be allowed to operate on tokens without being their owner.",
            "tokenId": "Identifier number of a token."
          }
        }
      ],
      "ERC721InvalidApprover(address)": [
        {
          "details": "Indicates a failure with the `approver` of a token to be approved. Used in approvals.",
          "params": {
            "approver": "Address initiating an approval operation."
          }
        }
      ],
      "ERC721InvalidOperator(address)": [
        {
          "details": "Indicates a failure with the `operator` to be approved. Used in approvals.",
          "params": {
            "operator": "Address that may be allowed to operate on tokens without being their owner."
          }
        }
      ],
      "ERC721InvalidOwner(address)": [
        {
          "details": "Indicates that an address can't be an owner. For example, `address(0)` is a forbidden owner in EIP-20. Used in balance queries.",
          "params": {
            "owner": "Address of the current owner of a token."
          }
        }
      ],
      "ERC721InvalidReceiver(address)": [
        {
          "details": "Indicates a failure with the token `receiver`. Used in transfers.",
          "params": {
            "receiver": "Address to which tokens are being transferred."
          }
        }
      ],
      "ERC721InvalidSender(address)": [
        {
          "details": "Indicates a failure with the token `sender`. Used in transfers.",
          "params": {
            "sender": "Address whose tokens are being transferred."
          }
        }
      ],
      "ERC721NonexistentToken(uint256)": [
        {
          "details": "Indicates a `tokenId` whose `owner` is the zero address.",
          "params": {
            "tokenId": "Identifier number of a token."
          }
        }
      ],
      "OwnableInvalidOwner(address)": [
        {
          "details": "The owner is not a valid owner account. (eg. `address(0)`)"
        }
      ],
      "OwnableUnauthorizedAccount(address)": [
        {
          "details": "The caller account is not authorized to perform an operation."
        }
      ]
    },
    "events": {
      "Approval(address,address,uint256)": {
        "details": "Emitted when `owner` enables `approved` to manage the `tokenId` token."
      },
      "ApprovalForAll(address,address,bool)": {
        "details": "Emitted when `owner` enables or disables (`approved`) `operator` to manage all of its assets."
      },
      "BatchMetadataUpdate(uint256,uint256)": {
        "details": "This event emits when the metadata of a range of tokens is changed. So that the third-party platforms such as NFT market could timely update the images and related attributes of the NFTs."
      },
      "MetadataUpdate(uint256)": {
        "details": "This event emits when the metadata of a token is changed. So that the third-party platforms such as NFT market could timely update the images and related attributes of the NFT."
      },
      "Transfer(address,address,uint256)": {
        "details": "Emitted when `tokenId` token is transferred from `from` to `to`."
      }
    },
    "kind": "dev",
    "methods": {
      "approve(address,uint256)": {
        "details": "See {IERC721-approve}."
      },
      "balanceOf(address)": {
        "details": "See {IERC721-balanceOf}."
      },
      "getApproved(uint256)": {
        "details": "See {IERC721-getApproved}."
      },
      "isApprovedForAll(address,address)": {
        "details": "See {IERC721-isApprovedForAll}."
      },
      "name()": {
        "details": "See {IERC721Metadata-name}."
      },
      "owner()": {
        "details": "Returns the address of the current owner."
      },
      "ownerOf(uint256)": {
        "details": "See {IERC721-ownerOf}."
      },
      "renounceOwnership()": {
        "details": "Leaves the contract without owner. It will not be possible to call `onlyOwner` functions. Can only be called by the current owner. NOTE: Renouncing ownership will leave the contract without an owner, thereby disabling any functionality that is only available to the owner."
      },
      "safeTransferFrom(address,address,uint256)": {
        "details": "See {IERC721-safeTransferFrom}."
      },
      "safeTransferFrom(address,address,uint256,bytes)": {
        "details": "See {IERC721-safeTransferFrom}."
      },
      "setApprovalForAll(address,bool)": {
        "details": "See {IERC721-setApprovalForAll}."
      },
      "symbol()": {
        "details": "See {IERC721Metadata-symbol}."
      },
      "transferFrom(address,address,uint256)": {
        "details": "See {IERC721-transferFrom}."
      },
      "transferOwnership(address)": {
        "details": "Transfers ownership of the contract to a new account (`newOwner`). Can only be called by the current owner."
      }
    },
    "version": 1
  },
  "userdoc": {
    "kind": "user",
    "methods": {},
    "version": 1
  },
  "storageLayout": {
    "storage": [
      {
        "astId": 349,
        "contract": "contracts/CertificadosNFT.sol:CertificadosNFT",
        "label": "_name",
        "offset": 0,
        "slot": "0",
        "type": "t_string_storage"
      },
      {
        "astId": 351,
        "contract": "contracts/CertificadosNFT.sol:CertificadosNFT",
        "label": "_symbol",
        "offset": 0,
        "slot": "1",
        "type": "t_string_storage"
      },
      {
        "astId": 355,
        "contract": "contracts/CertificadosNFT.sol:CertificadosNFT",
        "label": "_owners",
        "offset": 0,
        "slot": "2",
        "type": "t_mapping(t_uint256,t_address)"
      },
      {
        "astId": 359,
        "contract": "contracts/CertificadosNFT.sol:CertificadosNFT",
        "label": "_balances",
        "offset": 0,
        "slot": "3",
        "type": "t_mapping(t_address,t_uint256)"
      },
      {
        "astId": 363,
        "contract": "contracts/CertificadosNFT.sol:CertificadosNFT",
        "label": "_tokenApprovals",
        "offset": 0,
        "slot": "4",
        "type": "t_mapping(t_uint256,t_address)"
      },
      {
        "astId": 369,
        "contract": "contracts/CertificadosNFT.sol:CertificadosNFT",
        "label": "_operatorApprovals",
        "offset": 0,
        "slot": "5",
        "type": "t_mapping(t_address,t_mapping(t_address,t_bool))"
      },
      {
        "astId": 1488,
        "contract": "contracts/CertificadosNFT.sol:CertificadosNFT",
        "label": "_tokenURIs",
        "offset": 0,
        "slot": "6",
        "type": "t_mapping(t_uint256,t_string_storage)"
      },
      {
        "astId": 8,
        "contract": "contracts/CertificadosNFT.sol:CertificadosNFT",
        "label": "_owner",
        "offset": 0,
        "slot": "7",
        "type": "t_address"
      },
      {
        "astId": 3107,
        "contract": "contracts/CertificadosNFT.sol:CertificadosNFT",
        "label": "_nextCertificadoID",
        "offset": 0,
        "slot": "8",
        "type": "t_uint256"
      },
      {
        "astId": 3118,
        "contract": "contracts/CertificadosNFT.sol:CertificadosNFT",
        "label": "galeriaCertificados",
        "offset": 0,
        "slot": "9",
        "type": "t_array(t_struct(TipoCertificado)3114_storage)dyn_storage"
      },
      {
        "astId": 3122,
        "contract": "contracts/CertificadosNFT.sol:CertificadosNFT",
        "label": "esEstudianteRegistrado",
        "offset": 0,
        "slot": "10",
        "type": "t_mapping(t_address,t_bool)"
      }
    ],
    "types": {
      "t_address": {
        "encoding": "inplace",
        "label": "address",
        "numberOfBytes": "20"
      },
      "t_array(t_struct(TipoCertificado)3114_storage)dyn_storage": {
        "base": "t_struct(TipoCertificado)3114_storage",
        "encoding": "dynamic_array",
        "label": "struct CertificadosNFT.TipoCertificado[]",
        "numberOfBytes": "32"
      },
      "t_bool": {
        "encoding": "inplace",
        "label": "bool",
        "numberOfBytes": "1"
      },
      "t_mapping(t_address,t_bool)": {
        "encoding": "mapping",
        "key": "t_address",
        "label": "mapping(address => bool)",
        "numberOfBytes": "32",
        "value": "t_bool"
      },
      "t_mapping(t_address,t_mapping(t_address,t_bool))": {
        "encoding": "mapping",
        "key": "t_address",
        "label": "mapping(address => mapping(address => bool))",
        "numberOfBytes": "32",
        "value": "t_mapping(t_address,t_bool)"
      },
      "t_mapping(t_address,t_uint256)": {
        "encoding": "mapping",
        "key": "t_address",
        "label": "mapping(address => uint256)",
        "numberOfBytes": "32",
        "value": "t_uint256"
      },
      "t_mapping(t_uint256,t_address)": {
        "encoding": "mapping",
        "key": "t_uint256",
        "label": "mapping(uint256 => address)",
        "numberOfBytes": "32",
        "value": "t_address"
      },
      "t_mapping(t_uint256,t_string_storage)": {
        "encoding": "mapping",
        "key": "t_uint256",
        "label": "mapping(uint256 => string)",
        "numberOfBytes": "32",
        "value": "t_string_storage"
      },
      "t_string_storage": {
        "encoding": "bytes",
        "label": "string",
        "numberOfBytes": "32"
      },
      "t_struct(TipoCertificado)3114_storage": {
        "encoding": "inplace",
        "label": "struct CertificadosNFT.TipoCertificado",
        "members": [
          {
            "astId": 3109,
            "contract": "contracts/CertificadosNFT.sol:CertificadosNFT",
            "label": "nombre",
            "offset": 0,
            "slot": "0",
            "type": "t_string_storage"
          },
          {
            "astId": 3111,
            "contract": "contracts/CertificadosNFT.sol:CertificadosNFT",
            "label": "uri",
            "offset": 0,
            "slot": "1",
            "type": "t_string_storage"
          },
          {
            "astId": 3113,
            "contract": "contracts/CertificadosNFT.sol:CertificadosNFT",
            "label": "precio",
            "offset": 0,
            "slot": "2",
            "type": "t_uint256"
          }
        ],
        "numberOfBytes": "96"
      },
      "t_uint256": {
        "encoding": "inplace",
        "label": "uint256",
        "numberOfBytes": "32"
      }
    }
  }
}